:100000000C945D000C9485000C9485000C94850084
:100010000C9485000C9485000C9485000C9485004C
:100020000C9485000C9485000C9485000C94940528
:100030000C9485000C9485000C9485000C9485002C
:100040000C944A050C9485000C9485000C94850052
:100050000C9485000C9485000C9485000C9485000C
:100060000C9450060C94850000000000240027002A
:100070002A0000000000250028002B0004040404CE
:100080000404040402020202020203030303030342
:10009000010204081020408001020408102001021F
:1000A00004081020000000080002010000030407FB
:1000B00000000000000000008A0711241FBECFEFDF
:1000C000D8E0DEBFCDBF11E0A0E0B1E0E0E3F4E1B5
:1000D00002C005900D92AA35B107D9F722E0AAE532
:1000E000B1E001C01D92A337B207E1F710E0CDE502
:1000F000D0E004C02197FE010E94100ACC35D10740
:10010000C9F70E94C1070C94160A0C94000090E0F5
:10011000FC01EC55FF4F2491FC01E057FF4F349157
:10012000FC01E458FF4FE491EE23C9F0222339F09B
:10013000233001F1A8F4213019F1223029F1F0E047
:10014000EE0FFF1FEE58FF4FA591B4918FB7F894B3
:10015000EC91611126C030953E233C938FBF0895EA
:100160002730A9F02830C9F0243049F78091800069
:100170008F7D03C0809180008F7780938000DFCFD8
:1001800084B58F7784BDDBCF84B58F7DFBCF809125
:10019000B0008F778093B000D2CF8091B0008F7D78
:1001A000F9CF3E2BDACF8E50806480937C00809113
:1001B0007A00806480937A0080917A0086FDFCCF7B
:1001C000809178009091790008953FB7F8948091DC
:1001D000450290914602A0914702B091480226B58F
:1001E000A89B05C02F3F19F00196A11DB11D3FBF6F
:1001F000BA2FA92F982F8827BC01CD01620F711D3E
:10020000811D911D42E0660F771F881F991F4A9537
:10021000D1F708958F929F92AF92BF92CF92DF92C3
:10022000EF92FF924B015C010E94E5006B017C01A3
:100230000E94E5006C197D098E099F09683E734094
:1002400081059105A8F321E0821A9108A108B1085F
:1002500088EEC80E83E0D81EE11CF11C81149104C5
:10026000A104B10429F7FF90EF90DF90CF90BF90E9
:10027000AF909F908F90089508950895AF92BF9288
:10028000CF92DF92EF92FF920F931F93CF93DF9362
:100290006C017B018B01040F151FEB015E01AE1891
:1002A000BF08C017D10759F06991D601ED91FC91B3
:1002B0000190F081E02DC6010995892B79F7C501E0
:1002C000DF91CF911F910F91FF90EF90DF90CF9032
:1002D000BF90AF9008958F929F92AF92BF92FF927E
:1002E0000F931F93CF93DF93FC01F0808BE08F156A
:1002F00008F44AC0828108E512E0081B110987FD55
:100300001395000F111F000F111F8181C8E8D0E065
:10031000C81BD10987FDD395CC0FDD1FCC0FDD1F86
:100320004E010D2E000CAA08BB089801012E000CEE
:10033000440B550B281939094A095B09DB010E9456
:10034000C40924EB30E040E050E00E949A09820E9C
:10035000931EA41EB51E8C169D062CF0E801801677
:1003600091060CF4E4012297CC0FDD1F2FB7F8940F
:100370008F2D90E0FC01EE0FFF1FE80FF91FE25FE9
:10038000FD4FD283C1832FBFDF91CF911F910F917A
:10039000FF90BF90AF909F908F900895CF93DF9381
:1003A000DC018C918C3008F06DC0CB01FB01E05773
:1003B000FF4F249184589F4FFC018491882399F02A
:1003C00090E0880F991FFC01E859FF4FC591D49127
:1003D000FC01EE58FF4F859194918FB7F894E88116
:1003E000E22BE8838FBF8C91282F30E0F901EE0FCC
:1003F000FF1FE20FF31FE25FFD4F962F9F73608197
:10040000607C692B608311961C92119712961C9246
:1004100012972CE0622F0E94FD09829FB0011124E7
:1004200030E020E0AB01420F531FFA01EE0FFF1F37
:10043000E40FF51FE25FFD4F908196FD16C02F5F20
:100440003F4F2C30310571F781110FC010928000A1
:1004500082E0809381001092850010928400B19A0E
:1004600080916F00826080936F00EC918E2F90E0FE
:10047000FC01EE0FFF1FE80FF91FE25FFD4F8081C7
:10048000806480838C91DF91CF91089508952091AD
:100490009B01260F3327331F21323105ECF42091C5
:1004A000E401FC0190E080E0243069F082E00895EE
:1004B000A0919B012191AC0145585E4FA40FB52F2F
:1004C000B11D2C930196861798F380919B01680FBC
:1004D00060939B0180E0089581E008951092E4010B
:1004E00081E08093E3011092BE0161E082E10E940D
:1004F000870061E083E10E948700E9EBF0E0808102
:100500008E7F808380818D7F808388E48093B80094
:1005100085E48093BC000895CF93DF9391E090939E
:100520007A018823B9F0C091B800D091BA008091C7
:10053000BC008A7B8093BC0060E082E10E9487005F
:1005400060E083E10E9487000E946E02D093BA00AF
:10055000C093B800DF91CF9108950895E0913902DA
:1005600080913802E81730F4F0E0E65AFE4F8081BF
:1005700090E008958FEF9FEF089590913902809158
:1005800038022FEF3FEF981748F4E92FF0E0E65AD2
:10059000FE4F208130E09F5F90933902C90108959A
:1005A0008091380290913902891B990B0895CF925E
:1005B000DF92EF92FF920F931F93CF93DF937C0113
:1005C000CB018A012091EA01222389F0EB016B0122
:1005D000C40ED51ECC15DD0569F06991D701ED91EA
:1005E000FC910190F081E02DC7010995F3CF642FB4
:1005F0000E944702C801DF91CF911F910F91FF9098
:10060000EF90DF90CF900895CF93DF931F92CDB7F7
:10061000DEB769832091EA012223F9F020913602A6
:10062000203258F021E030E0FC013383228390E057
:1006300080E00F90DF91CF91089580913702E82FED
:10064000F0E0E551FE4F998190838F5F80933702F0
:100650008093360281E090E0ECCF61E0CE0101961C
:100660000E944702F7CFCF92DF92EF92FF920F9353
:100670001F93CF93DF93FC01C48121E02093EA0113
:10068000C0930B0210923702109236028385682BBA
:1006900089E492E00E940403D0913602D13208F03E
:1006A00092C00E94E5006B017C018091E401811100
:1006B00065C082E08093E40181E08093E3018FEFE5
:1006C0008093E2011092E101D093E001ABEEB1E042
:1006D000E0ECF1E080E0D81385C01092BF0180917A
:1006E000BF01CC0FC82BC093BF018091BE018130E8
:1006F00009F07CC01092BE010E94E5006B017C01F4
:100700008091BF018093BB008091E6019091E70149
:10071000A091E801B091E901892B8A2B8B2B99F0EC
:100720000E94E5000091E6011091E7012091E801A7
:100730003091E9016C197D098E099F090617170789
:1007400028073907E0F18091BC0083FDD9CF85EC03
:100750008093BC000E94E5006B017C018091E40164
:10076000823009F445C08091E2018F3F61F18091B0
:10077000E201803241F18091E20125C08091E601E1
:100780009091E701A091E801B091E901892B8A2BB2
:100790008B2B09F48ACF0E94E5000091E6011091AD
:1007A000E7012091E8013091E9016C197D098E097A
:1007B0009F09061717072807390708F076CF809199
:1007C000E5010E948C0210923702109236021092BC
:1007D000EA01DF91CF911F910F91FF90EF90DF9091
:1007E000CF9008959D9191938F5F75CF85EEB0CF97
:1007F0008091E6019091E701A091E801B091E901B3
:10080000892B8A2B8B2B09F4A9CF0E94E50000913C
:10081000E6011091E7012091E8013091E9016C199E
:100820007D098E099F09061717072807390708F061
:1008300095CFC5CF90E080E008958F929F92AF92C0
:10084000BF920F931F93CF93DF93CDB7DEB7A197DE
:100850000FB6F894DEBF0FBECDBF19A2423008F428
:100860004AE08E010F5D1F4F842E912CB12CA12CDC
:10087000A50194010E94CC09E62FB901CA01EA3012
:1008800044F5E05DD801EE938D01232B242B252B1D
:1008900079F790E080E0109769F0FD010190002069
:1008A000E9F73197AF014A1B5B0BBD0187E692E088
:1008B0000E943E01A1960FB6F894DEBF0FBECDBFD9
:1008C000DF91CF911F910F91BF90AF909F908F902C
:1008D0000895E95CD7CFFC0101900020E9F731973A
:1008E000AF01481B590BBC0187E692E00C943E0116
:1008F0000F931F93CF938C01C62F0E9433036C2F4D
:100900006460C8010E9433036C2F6B7FC8010E9492
:10091000330383EC90E00197F1F7CF911F910F9192
:1009200008950F931F93CF93DF938C01D62FC42F7D
:10093000607F642B0E94780480E1D89FB00111246D
:100940006C2BC801DF91CF911F910F910C9478040B
:1009500040E061E087E692E00E9491048BE39FE132
:100960000197F1F7089541E00E94910481E090E041
:100970000895CF92DF92EF92FF9297FF18C06B011C
:100980007C0141E06DE287E692E00E9491046627D7
:100990007727CB016C197D098E099F094AE00E94D7
:1009A0001D040196FF90EF90DF90CF9008954AE0EC
:1009B000FF90EF90DF90CF900C941D04CF93DF93C6
:1009C000CDB7DEB728970FB6F894DEBF0FBECDBF08
:1009D00098E0E0E0F1E0DE01119601900D929A9529
:1009E000E1F790916F02961710F46FEF690F262FC1
:1009F00030E0220F331F41E050E04C0F5D1F240F09
:100A0000351FF9016081680F606840E087E692E079
:100A100028960FB6F894DEBF0FBECDBFDF91CF9101
:100A20000C94910485ED8093BC008091E601909137
:100A3000E701A091E801B091E9010796A11DB11D60
:100A400023E0B695A795979587952A95D1F720919C
:100A5000BC0024FD03C01092E40108954091E6011A
:100A60005091E7016091E8017091E901452B462B17
:100A7000472B69F30097A105B10541F02AE22A95B9
:100A8000F1F700C00197A109B109E1CF8091E5011B
:100A90000C948C021F920F920FB60F9211242F9379
:100AA0003F938F939F93AF93BF9380914102909117
:100AB0004202A0914302B09144023091400223E0EF
:100AC000230F2D3758F50196A11DB11D209340022B
:100AD0008093410290934202A0934302B093440258
:100AE0008091450290914602A0914702B091480240
:100AF0000196A11DB11D8093450290934602A093DB
:100B00004702B0934802BF91AF919F918F913F915F
:100B10002F910F900FBE0F901F90189526E8230F6E
:100B20000296A11DB11DD2CF1F920F920FB60F9248
:100B300011242F933F934F935F936F937F938F93E2
:100B40009F93AF93BF93CF93DF93EF93FF938091E6
:100B50000C02C0910D02D0E087FF24C010928500E6
:100B60001092840080910C028F5F80930C02809120
:100B70000C02082E000C990B8C179D0724F4809111
:100B80000C028C30C4F18091840090918500049611
:100B900080349C4908F47AC080918400909185004B
:100BA000049676C080910C02082E000C990B8C17CD
:100BB0009D07C4F6E0910C028E2FEE0F990BFC01FD
:100BC000EE0FFF1FE80FF91FE25FFD4F808186FFE8
:100BD000C9CFE0910C028E2FEE0F990BFC01EE0FA6
:100BE000FF1FE80FF91FE25FFD4F808160E08F7308
:100BF0000E948700B7CF2091840030918500E0915A
:100C00000C028E2FEE0F990BFC01EE0FFF1FE80F69
:100C1000F91FE25FFD4F81819281820F931F9093B4
:100C2000890080938800E0910C028E2FEE0F990BC3
:100C3000FC01EE0FFF1FE80FF91FE25FFD4F8081FF
:100C400086FF11C0E0910C028E2FEE0F990BFC0174
:100C5000EE0FFF1FE80FF91FE25FFD4F808161E09B
:100C60008F730E948700FF91EF91DF91CF91BF9129
:100C7000AF919F918F917F916F915F914F913F9134
:100C80002F910F900FBE0F901F90189580E49CE954
:100C900090938900809388008FEF80930C02E3CFBC
:100CA0001F920F920FB60F9211242F933F934F93E1
:100CB0005F936F937F938F939F93AF93BF93EF93C4
:100CC000FF938091B900887F803609F44AC0F0F51F
:100CD000883209F4A7C018F5803109F49BC0B8F434
:100CE000882309F4F9C0883009F494C0FF91EF918A
:100CF000BF91AF919F918F917F916F915F914F9134
:100D00003F912F910F900FBE0F901F901895883133
:100D100009F488C0803251F78093E20114C0803416
:100D200009F49DC040F48033B9F38833F9F6809319
:100D3000E20185ECB0C0803509F485C0883509F43E
:100D400096C0883499F60E941205D0CF883909F4EC
:100D50008CC038F5883729F050F4883611F0803788
:100D600029F683E08093E4011092BD0157C08838D2
:100D700009F47BC0803919F0803809F0B7CF809131
:100D8000BD01803208F071C0E091BD0181E08E0F9D
:100D90008093BD018091BB00F0E0E356FE4F80835D
:100DA0003DC0803B39F0E0F4803A09F479C0883ADC
:100DB00009F09CCF84E08093E40110929C01109292
:100DC0009B01E0913402F0913502099580919B01DD
:100DD00081110FC081E080939B0110927B0109C0BB
:100DE000803C09F4A6CF883C09F4A3CF883B09F0E6
:100DF0007DCFE0919C0181E08E0F80939C01F0E01B
:100E0000E558FE4F80818093BB0090919C018091BA
:100E10009B0129C08091BF018093BB0085EC80932A
:100E2000BC0064CF9091E1018091E001981758F5E2
:100E3000E091E10181E08E0F8093E101F0E0E05468
:100E4000FE4F8081E9CFE091E10181E08E0F809338
:100E5000E1018091BB00F0E0E054FE4F808390916F
:100E6000E1018091E0019817C8F285E8D8CFE091C0
:100E7000E10181E08E0F8093E1018091BB00F0E001
:100E8000E054FE4F80838091E30181115CCF81E0CB
:100E90008093BE0184EA8093BC001092E40126CFC7
:100EA00085EC8093BC001092E4018091BD018032FA
:100EB00030F4E091BD01F0E0E356FE4F1082609106
:100EC000BD0170E0E0913202F09133028DE991E0D2
:100ED00009951092BD010ACF1092E20134CFFC01B6
:100EE00090910D029C3098F481E0890F80930D025F
:100EF0009083892F90E0FC01EE0FFF1FE80FF91F90
:100F0000E25FFD4F88EB9BE09283818308958FEF32
:100F100080830895E9E4F2E01382128288EE93E080
:100F2000A0E0B0E084839583A683B7838CE091E052
:100F300091838083E7E6F2E0138212828EE191E0F2
:100F40009183808387E2848384E1818784E0828740
:100F5000138684E692E00E946F0781E692E00E9489
:100F60006F078EE592E00E946F078BE592E00E948A
:100F70006F0788E592E00E946F0785E592E00C9488
:100F80006F07CF93DF9300D000D0CDB7DEB7789452
:100F900084B5826084BD84B5816084BD85B582607E
:100FA00085BD85B5816085BD80916E00816080932F
:100FB0006E00109281008091810082608093810098
:100FC00080918100816080938100809180008160A8
:100FD000809380008091B10084608093B100809103
:100FE000B00081608093B00080917A00846080932B
:100FF0007A0080917A00826080937A0080917A00F2
:10100000816080937A0080917A00806880937A0072
:101010001092C100109239021092380210923702D9
:10102000109236020E946E028CE391E0909335029A
:10103000809334028DE391E09093330280933202E7
:1010400010926C0280917102823018F098E09093B7
:101050006C0280936F0262E370E080E090E00E9497
:101060000A016091720287E692E00E94330368EE03
:1010700073E080E090E00E940A0160E387E692E07E
:101080000E9478048BE496E40197F1F760E387E629
:1010900092E00E9478048BE496E40197F1F760E314
:1010A00087E692E00E94780483E592E00197F1F7E9
:1010B00060E287E692E00E94780460916C026062D0
:1010C00040E087E692E00E94910484E080936D0204
:1010D00040E06CE087E692E00E9491040E94A80440
:1010E00082E080936E0240E066E087E692E00E9434
:1010F000910440E062E087E692E00E9491048BE375
:101100009FE10197F1F788E08093720260E087E643
:1011100092E00E9433030E94A80463E070E084E63A
:1011200092E00E94CE0165E070E081E692E00E94CC
:10113000CE0166E070E08EE592E00E94CE0169E0AB
:1011400070E08BE592E00E94CE016AE070E088E5F5
:1011500092E00E94CE016BE070E085E592E00E9493
:10116000CE010E94A80470E060E084E692E00E9454
:101170006B0170E060E081E692E00E946B0170E03C
:1011800060E08EE592E00E946B0144244A9483E083
:10119000582E612C712C8EE00E94D30024EB30E09D
:1011A000DC010E94090AA30192010E949A094901E7
:1011B00030933F0220933E028FE00E94D30024EB45
:1011C00030E0DC010E94090AA30192010E949A0901
:1011D000690130933D0220933C0280E10E94D300DC
:1011E00024EB30E0DC010E94090AA30192010E9475
:1011F0009A0929833A834B835C8389819A819093EE
:101200003B0280933A02B401653B710514F064EB34
:1012100070E077FF02C070E060E084E692E00E9438
:101220006B01B601653B710514F064EB70E077FF6C
:1012300002C070E060E081E692E00E946B0169818B
:101240007A81653B710514F064EB70E077FF02C0B2
:1012500070E060E08EE592E00E946B0160E080E06B
:101260000E94DE0486E291E00E946B0461E080E06F
:101270000E94DE048BE391E00E946B0462E080E058
:101280000E94DE0485E491E00E946B0463E080E04C
:101290000E94DE048FE491E00E946B0461E080E133
:1012A0000E94DE048EE00E94D30024EB30E0DC01DB
:1012B0000E94090AA30192010E949A09CA01B90178
:1012C0000E94B90462E080E10E94DE048FE00E9487
:1012D000D30024EB30E0DC010E94090AA301920153
:1012E0000E949A09CA01B9010E94B90463E080E131
:1012F0000E94DE0480E10E94D30024EB30E0DC0198
:101300000E94090AA30192010E949A09CA01B90127
:101310000E94B90464E873E080E090E00E940A0152
:101320000E94A80480E090E0892B09F434CF0E9449
:10133000000031CF052E97FB1EF400940E94B109E6
:1013400057FD07D00E94CC0907FC03D04EF40C9443
:10135000B10950954095309521953F4F4F4F5F4FC4
:10136000089590958095709561957F4F8F4F9F4F11
:1013700008950E94EE09A59F900DB49F900DA49F23
:10138000800D911D11240895B7FF0C94B9090E9496
:10139000B909821B930B0895A1E21A2EAA1BBB1B4D
:1013A000FD010DC0AA1FBB1FEE1FFF1FA217B30731
:1013B000E407F50720F0A21BB30BE40BF50B661F47
:1013C000771F881F991F1A9469F76095709580950B
:1013D00090959B01AC01BD01CF010895A29FB00182
:1013E000B39FC001A39F700D811D1124911DB29F59
:1013F000700D811D1124911D0895991B79E004C081
:10140000991F961708F0961B881F7A95C9F7809543
:1014100008950E94EE09B7FF0895821B930B08956B
:10142000EE0FFF1F0590F491E02D0994F894FFCF83
:101430000000400014005400000000000403D70224
:101440001A04AD02D002BD02AE0200000000B304D7
:101450003E011A044602414443202D205365727612
:101460006F202D20416E67756C6F00203020202D7D
:1014700020204E3100203120202D20204E3200200F
:0A1480003220202D20204E33000002
:00000001FF
