:020000040000FA
:100000000C9462000C948A000C948A000C948A0070
:100010000C948A000C948A000C948A000C948A0038
:100020000C948A000C948A000C948A000C94570655
:100030000C948A000C948A000C948A000C948A0018
:100040000C940D060C948A000C948A000C948A007F
:100050000C948A000C948A000C948A000C948A00F8
:100060000C9413070C948A00000000002400270061
:100070002A0000000000250028002B0000000000DE
:1000800023002600290004040404040404040202DA
:100090000202020203030303030301020408102007
:1000A0004080010204081020010204081020000012
:1000B0000008000201000003040700000000000027
:1000C00000004D0811241FBECFEFD8E0DEBFCDBF2A
:1000D00011E0A0E0B1E0E2E9F8E102C005900D9284
:1000E000A83AB107D9F722E0A8EAB1E001C01D9211
:1000F000A53CB207E1F710E0C2E6D0E004C02197CA
:10010000FE010E94410CC136D107C9F70E94840844
:100110000C94470C0C940000833081F028F481305B
:1001200099F08230A9F008958730A9F08830C9F09D
:100130008430B1F4809180008F7D03C08091800075
:100140008F7780938000089584B58F7784BD08955C
:1001500084B58F7DFBCF8091B0008F778093B00006
:1001600008958091B0008F7DF9CFCF93DF93282F32
:1001700030E0F901E255FF4F8491F901E656FF4F57
:10018000D491F901EA57FF4FC491CC23A1F081111A
:100190000E948C00EC2FF0E0EE0FFF1FE458FF4FA1
:1001A000A591B491EC91ED2381E090E009F480E019
:1001B000DF91CF91089580E090E0FACF1F93CF9325
:1001C000DF93282F30E0F901E255FF4F8491F901C8
:1001D000E656FF4FD491F901EA57FF4FC491CC2363
:1001E000A9F0162F81110E948C00EC2FF0E0EE0F89
:1001F000FF1FEE58FF4FA591B4918FB7F894EC9183
:10020000111108C0D095DE23DC938FBFDF91CF9111
:100210001F910895DE2BF8CFCF93DF9390E0FC0180
:10022000E656FF4F24918A579F4FFC018491882303
:10023000D1F090E0880F991FFC01E859FF4FA5917C
:10024000B491FC01EE58FF4FC591D491623071F426
:100250009FB7F8943C91822F809583238C93E881FB
:100260002E2B28839FBFDF91CF9108958FB7F894ED
:10027000EC912E2B2C938FBFF6CF8E508064809301
:100280007C0080917A00806480937A0080917A006B
:1002900086FDFCCF809178009091790008953FB75A
:1002A000F8948091970290919802A0919902B09150
:1002B0009A0226B5A89B05C02F3F19F00196A11DF3
:1002C000B11D3FBFBA2FA92F982F8827BC01CD01A0
:1002D000620F711D811D911D42E0660F771F881FFF
:1002E000991F4A95D1F708958F929F92AF92BF922E
:1002F000CF92DF92EF92FF924B015C010E944F017F
:100300006B017C010E944F016C197D098E099F09C8
:10031000683E734081059105A8F321E0821A910897
:10032000A108B10888EEC80E83E0D81EE11CF11CBC
:1003300081149104A104B10429F7FF90EF90DF909C
:10034000CF90BF90AF909F908F900895089508959B
:10035000AF92BF92CF92DF92EF92FF920F931F93D3
:10036000CF93DF936C017B018B01040F151FEB0111
:100370005E01AE18BF08C017D10759F06991D601C8
:10038000ED91FC910190F081E02DC6010995892B3A
:1003900079F7C501DF91CF911F910F91FF90EF90F9
:1003A000DF90CF90BF90AF900895CF92DF92EF9201
:1003B000FF92CF93DF93EC01603282E07807CCF5B7
:1003C000653B710514F064EB70E0898128E830E04A
:1003D000281B310987FD3395220F331F220F331F4E
:1003E0006901330FEE08FF088A8128E532E0281BF7
:1003F000310987FD3395220F331F220F331F032E40
:10040000000C440B550B2C193D094E095F09DB010B
:1004100077FF02C0B0E0A0E00E94F50B24EB30E0D3
:1004200040E050E00E94CB0BC20ED31EE41EF51E2E
:10043000B601E881EC3070F5298188E890E0821BF4
:10044000910927FD9395880F991F880F991F6817A9
:1004500079077CF02A8188E592E0821B910927FDCB
:100460009395880F991F880F991F681779070CF4C7
:10047000CB010297880F991F4FB7F8942E2F30E0C9
:10048000F901EE0FFF1FE20FF31FE45AFD4F9283B5
:1004900081834FBFDF91CF91FF90EF90DF90CF909E
:1004A00008951F93CF93DF93EC01162F88818C3032
:1004B00008F04EC061E0812F0E940C018881282F36
:1004C00030E0F901EE0FFF1FE20FF31FE45AFD4F7A
:1004D0001F736081607C612B608319821A822CE01B
:1004E000622F0E942E0C829FB001112430E020E088
:1004F000AB01420F531FFA01EE0FFF1FE40FF51F70
:10050000E45AFD4F908196FD16C02F5F3F4F2C306F
:10051000310571F781110FC01092800082E0809345
:1005200081001092850010928400B19A80916F0032
:10053000826080936F00E8818E2F90E0FC01EE0FC7
:10054000FF1FE80FF91FE45AFD4F8081806480830C
:100550008881DF91CF911F91089508952091E9013D
:10056000260F3327331F21323105ECF4209132025C
:10057000FC0190E080E0243069F082E00895A091D1
:10058000E9012191AC0147535E4FA40FB52FB11D76
:100590002C930196861798F38091E901680F609378
:1005A000E90180E0089581E008951092320281E02F
:1005B0008093310210920C0261E082E10E94DE0021
:1005C00061E083E10E94DE00E9EBF0E080818E7F54
:1005D000808380818D7F808388E48093B80085E468
:1005E0008093BC000895CF93DF9391E09093C8016E
:1005F0008823B9F0C091B800D091BA008091BC00B6
:100600008A7B8093BC0060E082E10E94DE0060E0B3
:1006100083E10E94DE000E94D502D093BA00C0930D
:10062000B800DF91CF9108950895E09187028091FD
:100630008602E81730F4F0E0E855FE4F808190E044
:1006400008958FEF9FEF0895909187028091860221
:100650002FEF3FEF981748F4E92FF0E0E855FE4FF1
:10066000208130E09F5F90938702C90108958091B7
:10067000860290918702891B990B0895CF92DF9291
:10068000EF92FF920F931F93CF93DF937C01CB01E7
:100690008A0120913802222389F0EB016B01C40EFC
:1006A000D51ECC15DD0569F06991D701ED91FC915E
:1006B0000190F081E02DC7010995F3CF642F0E94CE
:1006C000AE02C801DF91CF911F910F91FF90EF9083
:1006D000DF90CF900895CF93DF931F92CDB7DEB711
:1006E0006983209138022223F9F02091840220327C
:1006F00058F021E030E0FC013383228390E080E079
:100700000F90DF91CF91089580918502E82FF0E05E
:10071000E75CFD4F998190838F5F80938502809382
:10072000840281E090E0ECCF61E0CE0101960E946E
:10073000AE02F7CFCF92DF92EF92FF920F931F930B
:10074000CF93DF93FC01C48121E020933802C09352
:10075000590210928502109284028385682B8BE9DE
:1007600092E00E946B03D0918402D13208F092C0D3
:100770000E944F016B017C0180913202811165C0A2
:1007800082E08093320281E0809331028FEF809388
:10079000300210922F02D0932E02A9E3B2E0EEE0D5
:1007A000F2E080E0D81385C010920D0280910D0216
:1007B000CC0FC82BC0930D0280910C02813009F040
:1007C0007CC010920C020E944F016B017C01809151
:1007D0000D028093BB008091340290913502A0916C
:1007E0003602B0913702892B8A2B8B2B99F00E940D
:1007F0004F01009134021091350220913602309160
:1008000037026C197D098E099F09061717072807FB
:100810003907E0F18091BC0083FDD9CF85EC80934E
:10082000BC000E944F016B017C018091320282303A
:1008300009F445C0809130028F3F61F18091300210
:10084000803241F18091300225C080913402909134
:100850003502A0913602B0913702892B8A2B8B2B5F
:1008600009F48ACF0E944F010091340210913502A1
:1008700020913602309137026C197D098E099F094B
:10088000061717072807390708F076CF809133023B
:100890000E94F30210928502109284021092380294
:1008A000DF91CF911F910F91FF90EF90DF90CF904C
:1008B00008959D9191938F5F75CF85EEB0CF809114
:1008C000340290913502A0913602B0913702892B03
:1008D0008A2B8B2B09F4A9CF0E944F01009134027F
:1008E0001091350220913602309137026C197D0942
:1008F0008E099F09061717072807390708F095CFB3
:10090000C5CF90E080E008958F929F92AF92BF9202
:100910000F931F93CF93DF93CDB7DEB7A1970FB699
:10092000F894DEBF0FBECDBF19A2423008F44AE0F2
:100930008E010F5D1F4F842E912CB12CA12CA5018F
:1009400094010E94FD0BE62FB901CA01EA3044F57B
:10095000E05DD801EE938D01232B242B252B79F715
:1009600090E080E0109769F0FD0101900020E9F728
:100970003197AF014A1B5B0BBD0189EB92E00E94EE
:10098000A801A1960FB6F894DEBF0FBECDBFDF91D0
:10099000CF911F910F91BF90AF909F908F9008952E
:1009A000E95CD7CFFC0101900020E9F73197AF0156
:1009B000481B590BBC0189EB92E00C94A8010F93E2
:1009C0001F93CF938C01C62F0E949A036C2F6460F3
:1009D000C8010E949A036C2F6B7FC8010E949A0382
:1009E00083EC90E00197F1F7CF911F910F9108955B
:1009F0000F931F93CF93DF938C01D62FC42F607F6B
:100A0000642B0E94DF0480E1D89FB00111246C2B7D
:100A1000C801DF91CF911F910F910C94DF04CF9308
:100A2000DF93CDB7DEB728970FB6F894DEBF0FBEC1
:100A3000CDBF98E0E9E2F1E0DE01119601900D9260
:100A40009A95E1F79091C102961710F46FEF690F34
:100A5000262F30E0220F331F41E050E04C0F5D1F86
:100A6000240F351FF9016081680F606840E089EB51
:100A700092E028960FB6F894DEBF0FBECDBFDF918F
:100A8000CF910C94F80440E061E089EB92E00E9481
:100A9000F8048BE39FE10197F1F7089541E00E948C
:100AA000F80481E090E008950F931F93CF93DF93B4
:100AB0008B0198E0899FB0011124606440E089EBCC
:100AC00092E00E94F804E801085F1F4F699189EBEA
:100AD00092E00E944E05C017D107C1F7DF91CF9178
:100AE0001F910F910895CF93DF93D0919102809140
:100AF0008C02C2E0882321F0C4E0813009F4C3E015
:100B000060E080E00E940F056D2F89EB92E00E946B
:100B10004E0586E891E00E94D2046D2F89EB92E0A9
:100B20000E944E0561E080E00E940F0586E891E09A
:100B30000E94D2046C2F89EB92E00E944E0586E859
:100B400091E0DF91CF910C94D20480918C0290912E
:100B50002801891721F0809328010C9473050895CA
:100B6000CF92DF92EF92FF9297FF18C06B017C014A
:100B700041E06DE289EB92E00E94F8046627772756
:100B8000CB016C197D098E099F094AE00E948404FB
:100B90000196FF90EF90DF90CF9008954AE0FF908C
:100BA000EF90DF90CF900C94840485ED8093BC008F
:100BB0008091340290913502A0913602B0913702B3
:100BC0000796A11DB11D23E0B695A795979587952A
:100BD0002A95D1F72091BC0024FD03C01092320267
:100BE000089540913402509135026091360270911F
:100BF0003702452B462B472B69F30097A105B1051A
:100C000041F02AE22A95F1F700C00197A109B10944
:100C1000E1CF809133020C94F3021F920F920FB632
:100C20000F9211242F933F938F939F93AF93BF9372
:100C30008091930290919402A0919502B0919602B6
:100C40003091920223E0230F2D3758F50196A11D14
:100C5000B11D209392028093930290939402A093EB
:100C60009502B09396028091970290919802A0917C
:100C70009902B0919A020196A11DB11D809397022D
:100C800090939802A0939902B0939A02BF91AF916A
:100C90009F918F913F912F910F900FBE0F901F90BA
:100CA000189526E8230F0296A11DB11DD2CF1F92E1
:100CB0000F920FB60F9211242F933F934F935F9390
:100CC0006F937F938F939F93AF93BF93CF93DF9354
:100CD000EF93FF9380915A02C0915B02D0E087FFAF
:100CE00024C0109285001092840080915A028F5F78
:100CF00080935A0280915A02082E000C990B8C178F
:100D00009D0724F480915A028C30C4F180918400B4
:100D100090918500049680349C4908F47AC08091B3
:100D2000840090918500049676C080915A02082E26
:100D3000000C990B8C179D07C4F6E0915A028E2F78
:100D4000EE0F990BFC01EE0FFF1FE80FF91FE45A9D
:100D5000FD4F808186FFC9CFE0915A028E2FEE0FA2
:100D6000990BFC01EE0FFF1FE80FF91FE45AFD4F2E
:100D7000808160E08F730E94DE00B7CF20918400F5
:100D800030918500E0915A028E2FEE0F990BFC01F5
:100D9000EE0FFF1FE80FF91FE45AFD4F818192818A
:100DA000820F931F9093890080938800E0915A02EC
:100DB0008E2FEE0F990BFC01EE0FFF1FE80FF91FAE
:100DC000E45AFD4F808186FF11C0E0915A028E2FB8
:100DD000EE0F990BFC01EE0FFF1FE80FF91FE45A0D
:100DE000FD4F808161E08F730E94DE00FF91EF91E3
:100DF000DF91CF91BF91AF919F918F917F916F9133
:100E00005F914F913F912F910F900FBE0F901F90C8
:100E1000189580E49CE990938900809388008FEF77
:100E200080935A02E3CF1F920F920FB60F921124B4
:100E30002F933F934F935F936F937F938F939F93E2
:100E4000AF93BF93EF93FF938091B900887F803673
:100E500009F44AC0F0F5883209F4A7C018F58031CA
:100E600009F49BC0B8F4882309F4F9C0883009F468
:100E700094C0FF91EF91BF91AF919F918F917F911E
:100E80006F915F914F913F912F910F900FBE0F90F7
:100E90001F901895883109F488C0803251F78093EB
:100EA000300214C0803409F49DC040F48033B9F39B
:100EB0008833F9F68093300285ECB0C0803509F4B0
:100EC00085C0883509F496C0883499F60E94D50506
:100ED000D0CF883909F48CC038F5883729F050F420
:100EE000883611F0803729F683E080933202109221
:100EF0000B0257C0883809F47BC0803919F080385C
:100F000009F0B7CF80910B02803208F071C0E091F8
:100F10000B0281E08E0F80930B028091BB00F0E00A
:100F2000E551FE4F80833DC0803B39F0E0F4803ACC
:100F300009F479C0883A09F09CCF84E080933202AA
:100F40001092EA011092E901E0918202F09183028D
:100F500009958091E90181110FC081E08093E90139
:100F60001092C90109C0803C09F4A6CF883C09F45D
:100F7000A3CF883B09F07DCFE091EA0181E08E0F9D
:100F80008093EA01F0E0E753FE4F80818093BB003D
:100F90009091EA018091E90129C080910D0280932E
:100FA000BB0085EC8093BC0064CF90912F028091B0
:100FB0002E02981758F5E0912F0281E08E0F809352
:100FC0002F02F0E0E25FFD4F8081E9CFE0912F0238
:100FD00081E08E0F80932F028091BB00F0E0E25FF2
:100FE000FD4F808390912F0280912E029817C8F2B6
:100FF00085E8D8CFE0912F0281E08E0F80932F02F9
:101000008091BB00F0E0E25FFD4F80838091310270
:1010100081115CCF81E080930C0284EA8093BC0054
:101020001092320226CF85EC8093BC0010923202DF
:1010300080910B02803230F4E0910B02F0E0E55138
:10104000FE4F108260910B0270E0E0918002F091FF
:1010500081028BEE91E0099510920B020ACF10925B
:10106000300234CFFC0190915B029C3098F481E017
:10107000890F80935B029083892F90E0FC01EE0F33
:10108000FF1FE80FF91FE45AFD4F88EB9BE09283A6
:10109000818308958FEF80830895EBE9F2E0138256
:1010A000128288EE93E0A0E0B0E084839583A6836B
:1010B000B78385E391E091838083E9EBF2E01382CB
:1010C000128287E491E09183808387E2848384E1C4
:1010D000818784E08287138686EB92E00E94320843
:1010E00083EB92E00E94320880EB92E00E9432088B
:1010F0008DEA92E00E9432088AEA92E00E94320869
:1011000087EA92E00C943208789484B5826084BDBA
:1011100084B5816084BD85B5826085BD85B58160FB
:1011200085BD80916E00816080936E001092810079
:101130008091810082608093810080918100816034
:1011400080938100809180008160809380008091F5
:10115000B10084608093B1008091B0008160809381
:10116000B00080917A00846080937A0080917A0048
:10117000826080937A0080917A00816080937A0007
:1011800080917A00806880937A001092C10010925A
:1011900087021092860210928502109284020E94A9
:1011A000D50286EA91E0909383028093820287EAD7
:1011B00091E090938102809380021092BE02809110
:1011C000C302823018F098E09093BE028093C1026F
:1011D00062E370E080E090E00E9474016091C402DC
:1011E00089EB92E00E949A0368EE73E080E090E061
:1011F0000E94740160E389EB92E00E94DF04CBE47B
:10120000D6E4CE010197F1F760E389EB92E00E940A
:10121000DF042197F1F760E389EB92E00E94DF049D
:1012200083E592E00197F1F760E289EB92E00E949A
:10123000DF046091BE02606240E089EB92E00E94B0
:10124000F80484E08093BF0240E06CE089EB92E018
:101250000E94F8040E94430582E08093C00240E0AF
:1012600066E089EB92E00E94F80440E062E089EBDE
:1012700092E00E94F8048BE39FE10197F1F788E088
:101280008093C40260E089EB92E00E949A030E947E
:10129000430560E271E080E00E94540568E171E07E
:1012A00081E00E94540560E171E082E00E945405F3
:1012B00068E071E083E00E94540560E071E084E042
:1012C0000E9454050E9473052FB7F89480919302F1
:1012D00090919402A0919502B09196022FBF8093B5
:1012E0008D0290938E02A0938F02B093900263E0E0
:1012F00070E086EB92E00E94510265E070E083EBC3
:1013000092E00E94510266E070E080EB92E00E9461
:10131000510269E070E08DEA92E00E9451026AE0B9
:1013200070E08AEA92E00E9451026BE070E087EA86
:1013300092E00E94510262E089E00E940C0162E0AA
:101340008AE00E940C0161E08CE00E940C0161E0E7
:101350008DE00E940C010E94430560E08CE00E9439
:10136000DE0060E08DE00E94DE0070E060E086EB71
:1013700092E00E94D50170E060E083EB92E00E9471
:10138000D50170E060E080EB92E00E94D501109200
:101390008C020E94A50560E085E00E940F058FE4A5
:1013A00091E00E94D20462E080E00E940F0589E58E
:1013B00091E00E94D20463E088E00E940F0582E67B
:1013C00091E00E94D20460ED77E080E090E00E941E
:1013D00074010E944305CC24CA9483E0D82EE12CEA
:1013E000F12C00E010E0BB24B394C1E0D0E02FB7B3
:1013F000F8948091930290919402A0919502B091FB
:1014000096022FBF2091910240918D0250918E0241
:1014100060918F027091900221117FC13C014D01BA
:10142000641A750A860A970AB401A301403A5F401C
:101430006105710560F0B092910280938D029093E6
:101440008E02A0938F02B09390020E947305809148
:101450008C0290912801891721F0809328010E9425
:10146000730510928C020E94A50560E085E00E9441
:101470000F0580E791E00E94D20461E084E00E94C1
:101480000F0589E791E00E94D20462E084E00E94A7
:101490000F0588E891E00E94D20463E080E00E949A
:1014A0000F0586E991E00E94D20461E08CE00E9481
:1014B0000F0560918A0270918B02072E000C880B39
:1014C000990B0E94B00562E08CE00E940F056091CC
:1014D0008A0270918B02072E000C880B990B0E94D8
:1014E000B00561E081E10E940F0560918802709172
:1014F0008902072E000C880B990B0E94B00562E050
:1015000081E10E940F056091880270918902072E87
:10151000000C880B990B0E94B00563E084E00E94E8
:101520000F058EE00E943D0124EB30E0DC010E94BB
:101530003A0CA70196010E94CB0BCA01B9010E9487
:10154000B00563E08AE00E940F058FE00E943D0134
:1015500024EB30E0DC010E943A0CA70196010E94C6
:10156000CB0BCA01B9010E94B00563E080E10E9483
:101570000F0580E10E943D0124EB30E0DC010E9478
:101580003A0CA70196010E94CB0BCA01B9010E9437
:10159000B00589E00E94B500892B09F4D6C01092ED
:1015A0008B0210928A028AE00E94B500892B09F40E
:1015B000D6C0109289021092880280918A0290917E
:1015C0008B0261E0019709F060E08CE00E94DE0090
:1015D000809188029091890261E0019709F060E0B2
:1015E0008DE00E94DE008EE00E943D0124EB30E0A1
:1015F000DC010E943A0C62307C4F8F4F9F4F0CF4FD
:10160000B8C08EE00E943D0124EB30E0DC010E9476
:101610003A0C6B34734D824091050CF0ADC08EE0F6
:101620000E943D0124EB30E0DC010E943A0CA7014E
:1016300096010E94CB0BB90186EB92E00E94D50186
:101640008FE00E943D0124EB30E0DC010E943A0C67
:1016500062307C4F8F4F9F4F0CF491C08FE00E94FF
:101660003D0124EB30E0DC010E943A0C6B34734DF9
:10167000824091050CF086C08FE00E943D0124EB72
:1016800030E0DC010E943A0CA70196010E94CB0BCE
:10169000B90183EB92E00E94D50180E10E943D01F7
:1016A00024EB30E0DC010E943A0C62307C4F8F4F1B
:1016B0009F4F0CF46AC080E10E943D0124EB30E0B2
:1016C000DC010E943A0C6B34734D824091050CF0A2
:1016D0005FC080E10E943D0124EB30E0DC010E940C
:1016E0003A0CA70196010E94CB0BB90180EB92E066
:1016F0000E94D5016AE773E080E090E00E947401E7
:101700006AE070E080E090E00E947401011511052C
:1017100009F46DCE0E9400006ACE841B950BA60BC7
:10172000B70B883C9105A105B10508F490CE109245
:1017300091022FB7F8948091930290919402A09116
:101740009502B09196022FBF78CE82E080938C02F2
:101750000E94A505D0938B02C0938A0224CF82E019
:1017600080938C020E94A505D0938902C0938802C1
:1017700024CF70E060E060CF64EB70E05DCF70E09C
:1017800060E087CF64EB70E084CF70E060E0AECFC4
:1017900064EB70E0ABCF052E97FB1EF400940E9423
:1017A000E20B57FD07D00E94FD0B07FC03D04EF45F
:1017B0000C94E20B50954095309521953F4F4F4F3B
:1017C0005F4F089590958095709561957F4F8F4FED
:1017D0009F4F08950E941F0CA59F900DB49F900DE0
:1017E000A49F800D911D11240895B7FF0C94EA0B5E
:1017F0000E94EA0B821B930B0895A1E21A2EAA1BEA
:10180000BB1BFD010DC0AA1FBB1FEE1FFF1FA217B0
:10181000B307E407F50720F0A21BB30BE40BF50BAD
:10182000661F771F881F991F1A9469F76095709536
:10183000809590959B01AC01BD01CF010895A29FB9
:10184000B001B39FC001A39F700D811D1124911D94
:10185000B29F700D811D1124911D0895991B79E08F
:1018600004C0991F961708F0961B881F7A95C9F730
:10187000809508950E941F0CB7FF0895821B930B5B
:101880000895EE0FFF1F0590F491E02D0994F89450
:10189000FFCF0E1111110E00000000040A1100000C
:1018A000000000110A040000000000001F000000FA
:1018B00000000E1F151F0E000000FF000040001466
:1018C000005400000000006B033E03810414033742
:1018D0000324031503000000004E05A8018104AD98
:1018E000024D6F646F53544F502100456A656D700F
:1018F0006C6F3A0053756250726F6772616D6173FD
:1019000021004D6F646F52554E210049313A5820E5
:1019100049323A202049333A20004F313A58204F7B
:10192000323A20204F333A005320313A20202020F1
:0A193000323A20202020333A000054
:107E0000112484B714BE81FFF0D085E080938100F7
:107E100082E08093C00088E18093C10086E0809377
:107E2000C20080E18093C4008EE0C9D0259A86E02C
:107E300020E33CEF91E0309385002093840096BBD3
:107E4000B09BFECF1D9AA8958150A9F7CC24DD24C4
:107E500088248394B5E0AB2EA1E19A2EF3E0BF2EE7
:107E6000A2D0813461F49FD0082FAFD0023811F036
:107E7000013811F484E001C083E08DD089C08234E0
:107E800011F484E103C0853419F485E0A6D080C0E4
:107E9000853579F488D0E82EFF2485D0082F10E0AE
:107EA000102F00270E291F29000F111F8ED06801E7
:107EB0006FC0863521F484E090D080E0DECF843638
:107EC00009F040C070D06FD0082F6DD080E0C81688
:107ED00080E7D80618F4F601B7BEE895C0E0D1E017
:107EE00062D089930C17E1F7F0E0CF16F0E7DF06D8
:107EF00018F0F601B7BEE89568D007B600FCFDCFD4
:107F0000A601A0E0B1E02C9130E011968C91119780
:107F100090E0982F8827822B932B1296FA010C0160
:107F200087BEE89511244E5F5F4FF1E0A038BF0790
:107F300051F7F601A7BEE89507B600FCFDCF97BE46
:107F4000E89526C08437B1F42ED02DD0F82E2BD052
:107F50003CD0F601EF2C8F010F5F1F4F84911BD097
:107F6000EA94F801C1F70894C11CD11CFA94CF0C13
:107F7000D11C0EC0853739F428D08EE10CD085E9AC
:107F80000AD08FE07ACF813511F488E018D01DD067
:107F900080E101D065CF982F8091C00085FFFCCF94
:107FA0009093C60008958091C00087FFFCCF809118
:107FB000C00084FD01C0A8958091C6000895E0E648
:107FC000F0E098E1908380830895EDDF803219F02E
:107FD00088E0F5DFFFCF84E1DECF1F93182FE3DFCA
:107FE0001150E9F7F2DF1F91089580E0E8DFEE27F6
:047FF000FF270994CA
:027FFE00040479
:00000001FF
