:020000040000FA
:100000000C9462000C948A000C948A000C948A0070
:100010000C948A000C948A000C948A000C948A0038
:100020000C948A000C948A000C948A000C948A0028
:100030000C948A000C948A000C948A000C948A0018
:100040000C9452040C948A000C948A000C948A003C
:100050000C948A000C948A000C948A000C948A00F8
:100060000C949C040C948A000000000024002700DB
:100070002A0000000000250028002B0000000000DE
:1000800023002600290004040404040404040202DA
:100090000202020203030303030301020408102007
:1000A0004080010204081020010204081020000012
:1000B0000008000201000003040700000000000027
:1000C0000000BB0511241FBECFEFD8E0DEBFCDBFBF
:1000D00011E0A0E0B1E0EEE8FEE002C005900D9274
:1000E000A037B107D9F722E0A0E7B1E001C01D9227
:1000F000AB34B207E1F710E0C2E6D0E004C02197CC
:10010000FE010E943F07C136D107C9F70E94DB05F7
:100110000C9445070C940000833081F028F4813062
:1001200099F08230A9F008958730A9F08830C9F09D
:100130008430B1F4809180008F7D03C08091800075
:100140008F7780938000089584B58F7784BD08955C
:1001500084B58F7DFBCF8091B0008F778093B00006
:1001600008958091B0008F7DF9CFCF93DF93282F32
:1001700030E0F901E255FF4F8491F901E656FF4F57
:10018000D491F901EA57FF4FC491CC23A1F081111A
:100190000E948C00EC2FF0E0EE0FFF1FE458FF4FA1
:1001A000A591B491EC91ED2381E090E009F480E019
:1001B000DF91CF91089580E090E0FACF1F93CF9325
:1001C000DF93282F30E0F901E255FF4F8491F901C8
:1001D000E656FF4FD491F901EA57FF4FC491CC2363
:1001E000A9F0162F81110E948C00EC2FF0E0EE0F89
:1001F000FF1FEE58FF4FA591B4918FB7F894EC9183
:10020000111108C0D095DE23DC938FBFDF91CF9111
:100210001F910895DE2BF8CFCF93DF9390E0FC0180
:10022000E656FF4F24918A579F4FFC018491882303
:10023000D1F090E0880F991FFC01E859FF4FA5917C
:10024000B491FC01EE58FF4FC591D491623071F426
:100250009FB7F8943C91822F809583238C93E881FB
:100260002E2B28839FBFDF91CF9108958FB7F894ED
:10027000EC912E2B2C938FBFF6CF3FB7F894809143
:100280002F0290913002A0913102B091320226B536
:10029000A89B05C02F3F19F00196A11DB11D3FBFBE
:1002A000BA2FA92F982F8827BC01CD01620F711D8D
:1002B000811D911D42E0660F771F881F991F4A9587
:1002C000D1F708958F929F92AF92BF92CF92DF9213
:1002D000EF92FF924B015C010E943D016B017C019A
:1002E0000E943D016C197D098E099F09683E73408B
:1002F00081059105A8F321E0821A9108A108B108AF
:1003000088EEC80E83E0D81EE11CF11C8114910414
:10031000A104B10429F7FF90EF90DF90CF90BF9038
:10032000AF909F908F90089508950895AF92BF92D7
:10033000CF92DF92EF92FF920F931F93CF93DF93B1
:100340006C017B018B01040F151FEB015E01AE18E0
:10035000BF08C017D10759F06991D601ED91FC9102
:100360000190F081E02DC6010995892B79F7C5012F
:10037000DF91CF911F910F91FF90EF90DF90CF9081
:10038000BF90AF90089508952091B101260F3327B3
:10039000331F21323105ECF42091FA01FC0190E089
:1003A00080E0243069F082E00895A091B1012191AC
:1003B000AC014F565E4FA40FB52FB11D2C93019683
:1003C000861798F38091B101680F6093B10180E0C6
:1003D000089581E008951092FA0181E08093F90177
:1003E0001092D40161E082E10E94DE0061E083E1CD
:1003F0000E94DE00E9EBF0E080818E7F80838081C7
:100400008D7F808388E48093B80085E48093BC006E
:100410000895CF93DF9391E0909390018823B9F0F2
:10042000C091B800D091BA008091BC008A7B8093C3
:10043000BC0060E082E10E94DE0060E083E10E9497
:10044000DE000E94EB01D093BA00C093B800DF91A8
:10045000CF9108950895E091290280912802E8172C
:1004600030F4F0E0E059FE4F808190E008958FEF86
:100470009FEF089590912902809128022FEF3FEF7E
:10048000981748F4E92FF0E0E059FE4F208130E062
:100490009F5F90932902C90108958091280290914D
:1004A0002902891B990B0895CF92DF92EF92FF9258
:1004B0000F931F93CF93DF937C01CB018A0120918F
:1004C0000002222389F0EB016B01C40ED51ECC156E
:1004D000DD0569F06991D701ED91FC910190F08102
:1004E000E02DC7010995F3CF642F0E94C401C80114
:1004F000DF91CF911F910F91FF90EF90DF90CF9000
:100500000895CF93DF931F92CDB7DEB76983209113
:1005100000022223F9F020912602203258F021E037
:1005200030E0FC013383228390E080E00F90DF9184
:10053000CF91089580912702E82FF0E0EF5FFD4F03
:10054000998190838F5F809327028093260281E0B8
:1005500090E0ECCF61E0CE0101960E94C401F7CF9C
:10056000CF92DF92EF92FF920F931F93CF93DF937F
:10057000FC01C48121E020930002C093210210926B
:100580002702109226028385682B83E392E00E9463
:100590008102D0912602D13208F092C00E943D0122
:1005A0006B017C018091FA01811165C082E080932A
:1005B000FA0181E08093F9018FEF8093F8011092A6
:1005C000F701D093F601A1E0B2E0E6EDF1E080E0C2
:1005D000D81385C01092D5018091D501CC0FC82BBE
:1005E000C093D5018091D401813009F07CC0109274
:1005F000D4010E943D016B017C018091D501809363
:10060000BB008091FC019091FD01A091FE01B09191
:10061000FF01892B8A2B8B2B99F00E943D010091C1
:10062000FC011091FD012091FE013091FF016C1938
:100630007D098E099F090617170728073907E0F17A
:100640008091BC0083FDD9CF85EC8093BC000E94D3
:100650003D016B017C018091FA01823009F445C0B3
:100660008091F8018F3F61F18091F801803241F172
:100670008091F80125C08091FC019091FD01A0912D
:10068000FE01B091FF01892B8A2B8B2B09F48ACFB5
:100690000E943D010091FC011091FD012091FE019D
:1006A0003091FF016C197D098E099F090617170704
:1006B0002807390708F076CF8091FB010E940902D4
:1006C000109227021092260210920002DF91CF9121
:1006D0001F910F91FF90EF90DF90CF9008959D9123
:1006E00091938F5F75CF85EEB0CF8091FC01909193
:1006F000FD01A091FE01B091FF01892B8A2B8B2B6C
:1007000009F4A9CF0E943D010091FC011091FD0167
:100710002091FE013091FF016C197D098E099F091E
:10072000061717072807390708F095CFC5CF90E0BF
:1007300080E00895FC0101900020E9F73197AF01B6
:10074000481B590BBC018FE392E00C9496010F9368
:100750001F93CF938C01C62F0E94B0026C2F646050
:10076000C8010E94B0026C2F6B7FC8010E94B002CA
:1007700083EC90E00197F1F7CF911F910F910895CD
:100780000F931F93CF93DF938C01D62FC42F607FDD
:10079000642B0E94A70380E1D89FB00111246C2B29
:1007A000C801DF91CF911F910F910C94A703CF93B4
:1007B000DF93CDB7DEB728970FB6F894DEBF0FBE34
:1007C000CDBF98E0E0E0F1E0DE01119601900D92DE
:1007D0009A95E1F790914702981710F48FEF890FDF
:1007E00090E0880F991F21E030E02C0F3D1F820F11
:1007F000931FFC016081606840E08FE392E02896DF
:100800000FB6F894DEBF0FBECDBFDF91CF910C9431
:10081000C00340E061E08FE392E00E94C0038BE3FD
:100820009FE10197F1F7089541E00E94C00381E044
:1008300090E0089585ED8093BC008091FC0190913B
:10084000FD01A091FE01B091FF010796A11DB11D10
:1008500023E0B695A795979587952A95D1F720918E
:10086000BC0024FD03C01092FA0108954091FC01E0
:100870005091FD016091FE017091FF01452B462BC7
:10088000472B69F30097A105B10541F02AE22A95AB
:10089000F1F700C00197A109B109E1CF8091FB01F7
:1008A0000C9409021F920F920FB60F9211242F93EE
:1008B0003F938F939F93AF93BF9380912B0290911F
:1008C0002C02A0912D02B0912E0230912A0223E039
:1008D000230F2D3758F50196A11DB11D20932A0233
:1008E00080932B0290932C02A0932D02B0932E02A2
:1008F00080912F0290913002A0913102B09132028A
:100900000196A11DB11D80932F0290933002A093F8
:100910003102B0933202BF91AF919F918F913F917D
:100920002F910F900FBE0F901F90189526E8230F60
:100930000296A11DB11DD2CF1F920F920FB60F923A
:1009400011242F933F934F935F936F937F938F93D4
:100950009F93AF93BF93EF93FF938091B900887FEC
:10096000803609F44AC0F0F5883209F4A7C018F5BA
:10097000803109F49BC0B8F4882309F4F9C08830A9
:1009800009F494C0FF91EF91BF91AF919F918F9126
:100990007F916F915F914F913F912F910F900FBE7B
:1009A0000F901F901895883109F488C0803251F754
:1009B0008093F80114C0803409F49DC040F4803362
:1009C000B9F38833F9F68093F80185ECB0C080352F
:1009D00009F485C0883509F496C0883499F60E94D8
:1009E0001A04D0CF883909F48CC038F5883729F03B
:1009F00050F4883611F0803729F683E08093FA01AD
:100A00001092D30157C0883809F47BC0803919F09F
:100A1000803809F0B7CF8091D301803208F071C0DF
:100A2000E091D30181E08E0F8093D3018091BB00D0
:100A3000F0E0ED54FE4F80833DC0803B39F0E0F4A0
:100A4000803A09F479C0883A09F09CCF84E0809319
:100A5000FA011092B2011092B101E0912402F091DA
:100A6000250209958091B10181110FC081E0809329
:100A7000B1011092910109C0803C09F4A6CF883CD5
:100A800009F4A3CF883B09F07DCFE091B20181E06A
:100A90008E0F8093B201F0E0EF56FE4F808180937D
:100AA000BB009091B2018091B10129C08091D50124
:100AB0008093BB0085EC8093BC0064CF9091F701DC
:100AC0008091F601981758F5E091F70181E08E0FBB
:100AD0008093F701F0E0EA52FE4F8081E9CFE09188
:100AE000F70181E08E0F8093F7018091BB00F0E069
:100AF000EA52FE4F80839091F7018091F60198179A
:100B0000C8F285E8D8CFE091F70181E08E0F80939D
:100B1000F7018091BB00F0E0EA52FE4F80838091A4
:100B2000F90181115CCF81E08093D40184EA809344
:100B3000BC001092FA0126CF85EC8093BC00109285
:100B4000FA018091D301803230F4E091D301F0E0DA
:100B5000ED54FE4F10826091D30170E0E0912202CB
:100B6000F091230283EB91E009951092D3010ACF13
:100B70001092F80134CFE3E3F2E01382128288EEA0
:100B800093E0A0E0B0E084839583A683B7838CE0F4
:100B900091E091838083EFE3F2E0138212828EE191
:100BA00091E09183808387E2848384E1818784E07C
:100BB000828713860895789484B5826084BD84B555
:100BC000816084BD85B5826085BD85B5816085BD48
:100BD00080916E00816080936E0010928100809100
:100BE0008100826080938100809181008160809388
:100BF0008100809180008160809380008091B100AD
:100C000084608093B1008091B00081608093B000D7
:100C100080917A00846080937A0080917A0082606B
:100C200080937A0080917A00816080937A0080912D
:100C30007A00806880937A001092C1001092290295
:100C40001092280210922702109226020E94EB01B5
:100C500084E991E0909325028093240285E991E054
:100C600090932302809322021092440280914902C1
:100C7000823018F098E0909344028093470262E338
:100C800070E080E090E00E94620160914A028FE390
:100C900092E00E94B00268EE73E080E090E00E9473
:100CA000620160E38FE392E00E94A703CBE4D6E405
:100CB000CE010197F1F760E38FE392E00E94A70372
:100CC0002197F1F760E38FE392E00E94A70383E5A9
:100CD00092E00197F1F760E28FE392E00E94A703B0
:100CE00060914402606240E08FE392E00E94C003A2
:100CF00084E08093450240E06CE08FE392E00E9444
:100D0000C0030E94090482E08093460240E066E04E
:100D10008FE392E00E94C00340E062E08FE392E044
:100D20000E94C0038BE39FE10197F1F788E0809375
:100D30004A0260E08FE392E00E94B0020E94090440
:100D400062E082E00E940C0162E084E00E940C01FB
:100D500062E086E00E940C0162E088E00E940C01E3
:100D600062E08AE00E940C0162E08CE00E940C01CB
:100D700061E083E00E940C0161E085E00E940C01CB
:100D800061E087E00E940C0161E089E00E940C01B3
:100D900061E08BE00E940C0161E08DE00E940C019B
:100DA0000E94090480E00E94D70386E291E00E943D
:100DB0009A0381E00E94D7038BE391E00E949A039B
:100DC00082E00E94D70388E491E00E949A0383E0C6
:100DD0000E94D7038AE591E00E949A03C0E0D0E028
:100DE00080E00E94D7038DE691E00E949A0382E0A2
:100DF0000E94B50061E0892B09F060E083E00E9469
:100E0000DE0084E00E94B50061E0892B09F060E01B
:100E100085E00E94DE0086E00E94B50061E0892B3B
:100E200009F060E087E00E94DE0088E00E94B500E3
:100E300061E0892B09F060E089E00E94DE008AE031
:100E40000E94B50061E0892B09F060E08BE00E9410
:100E5000DE008CE00E94B50061E0892B09F060E0C3
:100E60008DE00E94DE006AE070E080E090E00E9489
:100E70006201209709F4B4CF0E940000B1CFEE0FB9
:100E8000FF1F0590F491E02D0994F894FFCF000026
:100E90004000140054000000000081025402970337
:100EA0002A024D023A022B020000000014049601AF
:100EB0009703C3012D20454E5452414441532F53B3
:100EC000414C49444153202D004D6F646F3A2050EE
:100ED000554C4C55500050726573696F6E3D4C4FC8
:100EE000572853414C4529005375656C74613D4842
:0E0EF00049474828454E5452412900453A00D2
:107E0000112484B714BE81FFF0D085E080938100F7
:107E100082E08093C00088E18093C10086E0809377
:107E2000C20080E18093C4008EE0C9D0259A86E02C
:107E300020E33CEF91E0309385002093840096BBD3
:107E4000B09BFECF1D9AA8958150A9F7CC24DD24C4
:107E500088248394B5E0AB2EA1E19A2EF3E0BF2EE7
:107E6000A2D0813461F49FD0082FAFD0023811F036
:107E7000013811F484E001C083E08DD089C08234E0
:107E800011F484E103C0853419F485E0A6D080C0E4
:107E9000853579F488D0E82EFF2485D0082F10E0AE
:107EA000102F00270E291F29000F111F8ED06801E7
:107EB0006FC0863521F484E090D080E0DECF843638
:107EC00009F040C070D06FD0082F6DD080E0C81688
:107ED00080E7D80618F4F601B7BEE895C0E0D1E017
:107EE00062D089930C17E1F7F0E0CF16F0E7DF06D8
:107EF00018F0F601B7BEE89568D007B600FCFDCFD4
:107F0000A601A0E0B1E02C9130E011968C91119780
:107F100090E0982F8827822B932B1296FA010C0160
:107F200087BEE89511244E5F5F4FF1E0A038BF0790
:107F300051F7F601A7BEE89507B600FCFDCF97BE46
:107F4000E89526C08437B1F42ED02DD0F82E2BD052
:107F50003CD0F601EF2C8F010F5F1F4F84911BD097
:107F6000EA94F801C1F70894C11CD11CFA94CF0C13
:107F7000D11C0EC0853739F428D08EE10CD085E9AC
:107F80000AD08FE07ACF813511F488E018D01DD067
:107F900080E101D065CF982F8091C00085FFFCCF94
:107FA0009093C60008958091C00087FFFCCF809118
:107FB000C00084FD01C0A8958091C6000895E0E648
:107FC000F0E098E1908380830895EDDF803219F02E
:107FD00088E0F5DFFFCF84E1DECF1F93182FE3DFCA
:107FE0001150E9F7F2DF1F91089580E0E8DFEE27F6
:047FF000FF270994CA
:027FFE00040479
:00000001FF
